{
  "_format": "hh-sol-artifact-1",
  "contractName": "FundRaising",
  "sourceName": "contracts/FundRaising.sol",
  "abi": [
    {
      "inputs": [
        {
          "internalType": "uint256",
          "name": "_deadline",
          "type": "uint256"
        },
        {
          "internalType": "uint256",
          "name": "_goal",
          "type": "uint256"
        },
        {
          "internalType": "uint256",
          "name": "_minimumContribution",
          "type": "uint256"
        }
      ],
      "stateMutability": "nonpayable",
      "type": "constructor"
    },
    {
      "inputs": [],
      "name": "contribute",
      "outputs": [],
      "stateMutability": "payable",
      "type": "function"
    },
    {
      "inputs": [
        {
          "internalType": "string",
          "name": "description",
          "type": "string"
        },
        {
          "internalType": "address",
          "name": "recipient",
          "type": "address"
        },
        {
          "internalType": "uint256",
          "name": "value",
          "type": "uint256"
        },
        {
          "internalType": "uint8",
          "name": "minimumVotePercent",
          "type": "uint8"
        }
      ],
      "name": "createSpendingRequest",
      "outputs": [],
      "stateMutability": "nonpayable",
      "type": "function"
    },
    {
      "inputs": [],
      "name": "getBalance",
      "outputs": [
        {
          "internalType": "uint256",
          "name": "",
          "type": "uint256"
        }
      ],
      "stateMutability": "view",
      "type": "function"
    },
    {
      "inputs": [],
      "name": "getDetails",
      "outputs": [
        {
          "internalType": "address",
          "name": "",
          "type": "address"
        },
        {
          "internalType": "uint256",
          "name": "",
          "type": "uint256"
        },
        {
          "internalType": "uint256",
          "name": "",
          "type": "uint256"
        },
        {
          "internalType": "uint256",
          "name": "",
          "type": "uint256"
        },
        {
          "internalType": "address[]",
          "name": "",
          "type": "address[]"
        },
        {
          "components": [
            {
              "internalType": "string",
              "name": "description",
              "type": "string"
            },
            {
              "internalType": "uint256",
              "name": "value",
              "type": "uint256"
            },
            {
              "internalType": "address",
              "name": "recipient",
              "type": "address"
            },
            {
              "internalType": "uint256",
              "name": "voteAmount",
              "type": "uint256"
            },
            {
              "internalType": "bool",
              "name": "completed",
              "type": "bool"
            },
            {
              "internalType": "address[]",
              "name": "voters",
              "type": "address[]"
            }
          ],
          "internalType": "struct FundRaising.Details[]",
          "name": "",
          "type": "tuple[]"
        }
      ],
      "stateMutability": "view",
      "type": "function"
    },
    {
      "inputs": [],
      "name": "getRefund",
      "outputs": [],
      "stateMutability": "nonpayable",
      "type": "function"
    },
    {
      "inputs": [],
      "name": "getReports",
      "outputs": [
        {
          "components": [
            {
              "internalType": "uint256",
              "name": "timestamp",
              "type": "uint256"
            },
            {
              "internalType": "string",
              "name": "link",
              "type": "string"
            }
          ],
          "internalType": "struct FundRaising.Report[]",
          "name": "",
          "type": "tuple[]"
        }
      ],
      "stateMutability": "view",
      "type": "function"
    },
    {
      "inputs": [
        {
          "internalType": "uint256",
          "name": "index",
          "type": "uint256"
        }
      ],
      "name": "makePayment",
      "outputs": [],
      "stateMutability": "nonpayable",
      "type": "function"
    },
    {
      "inputs": [
        {
          "internalType": "uint256",
          "name": "",
          "type": "uint256"
        }
      ],
      "name": "requests",
      "outputs": [
        {
          "internalType": "string",
          "name": "description",
          "type": "string"
        },
        {
          "internalType": "uint256",
          "name": "value",
          "type": "uint256"
        },
        {
          "internalType": "address",
          "name": "recipient",
          "type": "address"
        },
        {
          "internalType": "uint256",
          "name": "voteAmount",
          "type": "uint256"
        },
        {
          "internalType": "bool",
          "name": "completed",
          "type": "bool"
        },
        {
          "internalType": "uint8",
          "name": "minimumVotePercent",
          "type": "uint8"
        }
      ],
      "stateMutability": "view",
      "type": "function"
    },
    {
      "inputs": [],
      "name": "shareProfit",
      "outputs": [],
      "stateMutability": "payable",
      "type": "function"
    },
    {
      "inputs": [
        {
          "internalType": "string",
          "name": "link",
          "type": "string"
        }
      ],
      "name": "shareReport",
      "outputs": [],
      "stateMutability": "nonpayable",
      "type": "function"
    },
    {
      "inputs": [
        {
          "internalType": "uint256",
          "name": "index",
          "type": "uint256"
        }
      ],
      "name": "voteForRequest",
      "outputs": [],
      "stateMutability": "nonpayable",
      "type": "function"
    }
  ],
  "bytecode": "0x60806040526000600660006101000a81548160ff021916908360ff16021790555060006008553480156200003257600080fd5b50604051620030b3380380620030b3833981810160405281019062000058919062000232565b8060038190555082426200006d9190620002bd565b6004819055508160058190555033600960006101000a81548173ffffffffffffffffffffffffffffffffffffffff021916908373ffffffffffffffffffffffffffffffffffffffff1602179055506000600760018160018154018082558091505003906000526020600020906002020190506040518060400160405280600d81526020017f496e7469616c207265706f7274000000000000000000000000000000000000008152508160010190805190602001906200012e92919062000142565b50428160000181905550505050506200037f565b828054620001509062000349565b90600052602060002090601f016020900481019282620001745760008555620001c0565b82601f106200018f57805160ff1916838001178555620001c0565b82800160010185558215620001c0579182015b82811115620001bf578251825591602001919060010190620001a2565b5b509050620001cf9190620001d3565b5090565b5b80821115620001ee576000816000905550600101620001d4565b5090565b600080fd5b6000819050919050565b6200020c81620001f7565b81146200021857600080fd5b50565b6000815190506200022c8162000201565b92915050565b6000806000606084860312156200024e576200024d620001f2565b5b60006200025e868287016200021b565b935050602062000271868287016200021b565b925050604062000284868287016200021b565b9150509250925092565b7f4e487b7100000000000000000000000000000000000000000000000000000000600052601160045260246000fd5b6000620002ca82620001f7565b9150620002d783620001f7565b9250827fffffffffffffffffffffffffffffffffffffffffffffffffffffffffffffffff038211156200030f576200030e6200028e565b5b828201905092915050565b7f4e487b7100000000000000000000000000000000000000000000000000000000600052602260045260246000fd5b600060028204905060018216806200036257607f821691505b602082108114156200037957620003786200031a565b5b50919050565b612d24806200038f6000396000f3fe60806040526004361061009c5760003560e01c8063700127ef11610064578063700127ef1461015157806381d12c581461017a578063a3c86daf146101bc578063b2d5ae44146101e7578063d7bb99ba146101fe578063fbbf93a0146102085761009c565b806312065fe0146100a15780633bf8daca146100cc5780635114cb52146100d65780636ce82b55146100ff5780636f4f84f414610128575b600080fd5b3480156100ad57600080fd5b506100b6610238565b6040516100c39190611955565b60405180910390f35b6100d4610240565b005b3480156100e257600080fd5b506100fd60048036038101906100f891906119b0565b610474565b005b34801561010b57600080fd5b5061012660048036038101906101219190611bba565b610650565b005b34801561013457600080fd5b5061014f600480360381019061014a9190611c3d565b61091d565b005b34801561015d57600080fd5b50610178600480360381019061017391906119b0565b6109c1565b005b34801561018657600080fd5b506101a1600480360381019061019c91906119b0565b610c1b565b6040516101b396959493929190611d47565b60405180910390f35b3480156101c857600080fd5b506101d1610d29565b6040516101de9190611f07565b60405180910390f35b3480156101f357600080fd5b506101fc610ec8565b005b61020661117d565b005b34801561021457600080fd5b5061021d611362565b60405161022f969594939291906121b7565b60405180910390f35b600047905090565b600960009054906101000a900473ffffffffffffffffffffffffffffffffffffffff1673ffffffffffffffffffffffffffffffffffffffff163373ffffffffffffffffffffffffffffffffffffffff161461029a57600080fd5b60085460055411156102e1576040517f08c379a00000000000000000000000000000000000000000000000000000000081526004016102d890612272565b60405180910390fd5b60003411610324576040517f08c379a000000000000000000000000000000000000000000000000000000000815260040161031b90612304565b60405180910390fd5b60005b600280549050811015610455576002818154811061034857610347612324565b5b9060005260206000200160009054906101000a900473ffffffffffffffffffffffffffffffffffffffff1673ffffffffffffffffffffffffffffffffffffffff166108fc6104163460016000600287815481106103a8576103a7612324565b5b9060005260206000200160009054906101000a900473ffffffffffffffffffffffffffffffffffffffff1673ffffffffffffffffffffffffffffffffffffffff1673ffffffffffffffffffffffffffffffffffffffff1681526020019081526020016000205460085461177f565b9081150290604051600060405180830381858888f19350505050158015610441573d6000803e3d6000fd5b50808061044d90612382565b915050610327565b506000600660006101000a81548160ff021916908360ff160217905550565b600960009054906101000a900473ffffffffffffffffffffffffffffffffffffffff1673ffffffffffffffffffffffffffffffffffffffff163373ffffffffffffffffffffffffffffffffffffffff16146104ce57600080fd5b6000600a82815481106104e4576104e3612324565b5b90600052602060002090600702019050600015158160040160009054906101000a900460ff1615151461054c576040517f08c379a00000000000000000000000000000000000000000000000000000000081526004016105439061243d565b60405180910390fd5b8060040160019054906101000a900460ff1660ff1660085461056e919061245d565b6064826003015461057f919061245d565b10156105c0576040517f08c379a00000000000000000000000000000000000000000000000000000000081526004016105b790612529565b60405180910390fd5b8060020160009054906101000a900473ffffffffffffffffffffffffffffffffffffffff1673ffffffffffffffffffffffffffffffffffffffff166108fc82600101549081150290604051600060405180830381858888f1935050505015801561062e573d6000803e3d6000fd5b5060018160040160006101000a81548160ff0219169083151502179055505050565b600960009054906101000a900473ffffffffffffffffffffffffffffffffffffffff1673ffffffffffffffffffffffffffffffffffffffff163373ffffffffffffffffffffffffffffffffffffffff16146106aa57600080fd5b478211156106ed576040517f08c379a00000000000000000000000000000000000000000000000000000000081526004016106e4906125bb565b60405180910390fd5b6005600660009054906101000a900460ff1660ff161115610743576040517f08c379a000000000000000000000000000000000000000000000000000000000815260040161073a90612673565b60405180910390fd5b62278d00426107529190612693565b600760016007805490506107669190612693565b8154811061077757610776612324565b5b90600052602060002090600202016000015410156107ca576040517f08c379a00000000000000000000000000000000000000000000000000000000081526004016107c190612739565b60405180910390fd5b60328160ff161015610811576040517f08c379a0000000000000000000000000000000000000000000000000000000008152600401610808906127cb565b60405180910390fd5b6000600a600181600181540180825580915050039060005260206000209060070201905082816001018190555084816000019080519060200190610856929190611831565b50838160020160006101000a81548173ffffffffffffffffffffffffffffffffffffffff021916908373ffffffffffffffffffffffffffffffffffffffff160217905550818160040160016101000a81548160ff021916908360ff1602179055506000816003018190555060008160040160006101000a81548160ff0219169083151502179055506006600081819054906101000a900460ff16809291906108fd906127eb565b91906101000a81548160ff021916908360ff160217905550505050505050565b600960009054906101000a900473ffffffffffffffffffffffffffffffffffffffff1673ffffffffffffffffffffffffffffffffffffffff163373ffffffffffffffffffffffffffffffffffffffff161461097757600080fd5b600060076001816001815401808255809150500390600052602060002090600202019050818160010190805190602001906109b3929190611831565b504281600001819055505050565b6000600160003373ffffffffffffffffffffffffffffffffffffffff1673ffffffffffffffffffffffffffffffffffffffff1681526020019081526020016000205411610a43576040517f08c379a0000000000000000000000000000000000000000000000000000000008152600401610a3a90612887565b60405180910390fd5b6000600a8281548110610a5957610a58612324565b5b90600052602060002090600702019050600015158160060160003373ffffffffffffffffffffffffffffffffffffffff1673ffffffffffffffffffffffffffffffffffffffff16815260200190815260200160002060009054906101000a900460ff16151514610afe576040517f08c379a0000000000000000000000000000000000000000000000000000000008152600401610af5906128f3565b60405180910390fd5b60018160060160003373ffffffffffffffffffffffffffffffffffffffff1673ffffffffffffffffffffffffffffffffffffffff16815260200190815260200160002060006101000a81548160ff02191690831515021790555080600501339080600181540180825580915050600190039060005260206000200160009091909190916101000a81548173ffffffffffffffffffffffffffffffffffffffff021916908373ffffffffffffffffffffffffffffffffffffffff160217905550600160003373ffffffffffffffffffffffffffffffffffffffff1673ffffffffffffffffffffffffffffffffffffffff16815260200190815260200160002054816003016000828254610c109190612913565b925050819055505050565b600a8181548110610c2b57600080fd5b9060005260206000209060070201600091509050806000018054610c4e90612998565b80601f0160208091040260200160405190810160405280929190818152602001828054610c7a90612998565b8015610cc75780601f10610c9c57610100808354040283529160200191610cc7565b820191906000526020600020905b815481529060010190602001808311610caa57829003601f168201915b5050505050908060010154908060020160009054906101000a900473ffffffffffffffffffffffffffffffffffffffff16908060030154908060040160009054906101000a900460ff16908060040160019054906101000a900460ff16905086565b606060006001600780549050610d3f9190612693565b67ffffffffffffffff811115610d5857610d576119f8565b5b604051908082528060200260200182016040528015610d9157816020015b610d7e6118b7565b815260200190600190039081610d765790505b5090506000600190505b6007805490508163ffffffff161015610ec05760078163ffffffff1681548110610dc857610dc7612324565b5b906000526020600020906002020160405180604001604052908160008201548152602001600182018054610dfb90612998565b80601f0160208091040260200160405190810160405280929190818152602001828054610e2790612998565b8015610e745780601f10610e4957610100808354040283529160200191610e74565b820191906000526020600020905b815481529060010190602001808311610e5757829003601f168201915b50505050508152505082600183610e8b91906129da565b63ffffffff1681518110610ea257610ea1612324565b5b60200260200101819052508080610eb890612a0e565b915050610d9b565b508091505090565b6004544211610f0c576040517f08c379a0000000000000000000000000000000000000000000000000000000008152600401610f0390612aad565b60405180910390fd5b60055460085410610f52576040517f08c379a0000000000000000000000000000000000000000000000000000000008152600401610f4990612b3f565b60405180910390fd5b6000600160003373ffffffffffffffffffffffffffffffffffffffff1673ffffffffffffffffffffffffffffffffffffffff1681526020019081526020016000205411610fd4576040517f08c379a0000000000000000000000000000000000000000000000000000000008152600401610fcb90612887565b60405180910390fd5b3373ffffffffffffffffffffffffffffffffffffffff166108fc600160003373ffffffffffffffffffffffffffffffffffffffff1673ffffffffffffffffffffffffffffffffffffffff168152602001908152602001600020549081150290604051600060405180830381858888f19350505050158015611059573d6000803e3d6000fd5b5060005b6002805490508110156110f4573373ffffffffffffffffffffffffffffffffffffffff166002828154811061109557611094612324565b5b9060005260206000200160009054906101000a900473ffffffffffffffffffffffffffffffffffffffff1673ffffffffffffffffffffffffffffffffffffffff1614156110e1576110f4565b80806110ec90612382565b91505061105d565b6002818154811061110857611107612324565b5b9060005260206000200160006101000a81549073ffffffffffffffffffffffffffffffffffffffff02191690556000600160003373ffffffffffffffffffffffffffffffffffffffff1673ffffffffffffffffffffffffffffffffffffffff1681526020019081526020016000208190555050565b60035434116111c1576040517f08c379a00000000000000000000000000000000000000000000000000000000081526004016111b890612bd1565b60405180910390fd5b6004544210611205576040517f08c379a00000000000000000000000000000000000000000000000000000000081526004016111fc90612c3d565b60405180910390fd5b6000600160003373ffffffffffffffffffffffffffffffffffffffff1673ffffffffffffffffffffffffffffffffffffffff1681526020019081526020016000205414156112f1576002339080600181540180825580915050600190039060005260206000200160009091909190916101000a81548173ffffffffffffffffffffffffffffffffffffffff021916908373ffffffffffffffffffffffffffffffffffffffff16021790555060008081819054906101000a900463ffffffff16809291906112d190612a0e565b91906101000a81548163ffffffff021916908363ffffffff160217905550505b34600160003373ffffffffffffffffffffffffffffffffffffffff1673ffffffffffffffffffffffffffffffffffffffff16815260200190815260200160002060008282546113409190612913565b9250508190555034600860008282546113599190612913565b92505081905550565b6000806000806060806000600a8054905067ffffffffffffffff81111561138c5761138b6119f8565b5b6040519080825280602002602001820160405280156113c557816020015b6113b26118d1565b8152602001906001900390816113aa5790505b50905060005b600a805490508163ffffffff16101561169d576000600a8263ffffffff16815481106113fa576113f9612324565b5b9060005260206000209060070201905080600001805461141990612998565b80601f016020809104026020016040519081016040528092919081815260200182805461144590612998565b80156114925780601f1061146757610100808354040283529160200191611492565b820191906000526020600020905b81548152906001019060200180831161147557829003601f168201915b5050505050838363ffffffff16815181106114b0576114af612324565b5b6020026020010151600001819052508060010154838363ffffffff16815181106114dd576114dc612324565b5b602002602001015160200181815250508060030154838363ffffffff168151811061150b5761150a612324565b5b602002602001015160600181815250508060020160009054906101000a900473ffffffffffffffffffffffffffffffffffffffff16838363ffffffff168151811061155957611558612324565b5b60200260200101516040019073ffffffffffffffffffffffffffffffffffffffff16908173ffffffffffffffffffffffffffffffffffffffff16815250508060040160009054906101000a900460ff16838363ffffffff16815181106115c2576115c1612324565b5b602002602001015160800190151590811515815250508060050180548060200260200160405190810160405280929190818152602001828054801561165c57602002820191906000526020600020905b8160009054906101000a900473ffffffffffffffffffffffffffffffffffffffff1673ffffffffffffffffffffffffffffffffffffffff1681526020019060010190808311611612575b5050505050838363ffffffff168151811061167a57611679612324565b5b602002602001015160a0018190525050808061169590612a0e565b9150506113cb565b50600960009054906101000a900473ffffffffffffffffffffffffffffffffffffffff1660085460008054906101000a900463ffffffff16476002858363ffffffff1693508180548060200260200160405190810160405280929190818152602001828054801561176357602002820191906000526020600020905b8160009054906101000a900473ffffffffffffffffffffffffffffffffffffffff1673ffffffffffffffffffffffffffffffffffffffff1681526020019060010190808311611719575b5050505050915096509650965096509650965050909192939495565b600080828561178e9190612c8c565b90506000838661179e9190612cbd565b9050600084866117ae9190612c8c565b9050600085876117be9190612cbd565b90508581846117cd919061245d565b6117d79190612c8c565b82846117e3919061245d565b82866117ef919061245d565b8885886117fc919061245d565b611806919061245d565b6118109190612913565b61181a9190612913565b6118249190612913565b9450505050509392505050565b82805461183d90612998565b90600052602060002090601f01602090048101928261185f57600085556118a6565b82601f1061187857805160ff19168380011785556118a6565b828001600101855582156118a6579182015b828111156118a557825182559160200191906001019061188a565b5b5090506118b3919061191f565b5090565b604051806040016040528060008152602001606081525090565b6040518060c001604052806060815260200160008152602001600073ffffffffffffffffffffffffffffffffffffffff16815260200160008152602001600015158152602001606081525090565b5b80821115611938576000816000905550600101611920565b5090565b6000819050919050565b61194f8161193c565b82525050565b600060208201905061196a6000830184611946565b92915050565b6000604051905090565b600080fd5b600080fd5b61198d8161193c565b811461199857600080fd5b50565b6000813590506119aa81611984565b92915050565b6000602082840312156119c6576119c561197a565b5b60006119d48482850161199b565b91505092915050565b600080fd5b600080fd5b6000601f19601f8301169050919050565b7f4e487b7100000000000000000000000000000000000000000000000000000000600052604160045260246000fd5b611a30826119e7565b810181811067ffffffffffffffff82111715611a4f57611a4e6119f8565b5b80604052505050565b6000611a62611970565b9050611a6e8282611a27565b919050565b600067ffffffffffffffff821115611a8e57611a8d6119f8565b5b611a97826119e7565b9050602081019050919050565b82818337600083830152505050565b6000611ac6611ac184611a73565b611a58565b905082815260208101848484011115611ae257611ae16119e2565b5b611aed848285611aa4565b509392505050565b600082601f830112611b0a57611b096119dd565b5b8135611b1a848260208601611ab3565b91505092915050565b600073ffffffffffffffffffffffffffffffffffffffff82169050919050565b6000611b4e82611b23565b9050919050565b611b5e81611b43565b8114611b6957600080fd5b50565b600081359050611b7b81611b55565b92915050565b600060ff82169050919050565b611b9781611b81565b8114611ba257600080fd5b50565b600081359050611bb481611b8e565b92915050565b60008060008060808587031215611bd457611bd361197a565b5b600085013567ffffffffffffffff811115611bf257611bf161197f565b5b611bfe87828801611af5565b9450506020611c0f87828801611b6c565b9350506040611c208782880161199b565b9250506060611c3187828801611ba5565b91505092959194509250565b600060208284031215611c5357611c5261197a565b5b600082013567ffffffffffffffff811115611c7157611c7061197f565b5b611c7d84828501611af5565b91505092915050565b600081519050919050565b600082825260208201905092915050565b60005b83811015611cc0578082015181840152602081019050611ca5565b83811115611ccf576000848401525b50505050565b6000611ce082611c86565b611cea8185611c91565b9350611cfa818560208601611ca2565b611d03816119e7565b840191505092915050565b611d1781611b43565b82525050565b60008115159050919050565b611d3281611d1d565b82525050565b611d4181611b81565b82525050565b600060c0820190508181036000830152611d618189611cd5565b9050611d706020830188611946565b611d7d6040830187611d0e565b611d8a6060830186611946565b611d976080830185611d29565b611da460a0830184611d38565b979650505050505050565b600081519050919050565b600082825260208201905092915050565b6000819050602082019050919050565b611de48161193c565b82525050565b600082825260208201905092915050565b6000611e0682611c86565b611e108185611dea565b9350611e20818560208601611ca2565b611e29816119e7565b840191505092915050565b6000604083016000830151611e4c6000860182611ddb565b5060208301518482036020860152611e648282611dfb565b9150508091505092915050565b6000611e7d8383611e34565b905092915050565b6000602082019050919050565b6000611e9d82611daf565b611ea78185611dba565b935083602082028501611eb985611dcb565b8060005b85811015611ef55784840389528151611ed68582611e71565b9450611ee183611e85565b925060208a01995050600181019050611ebd565b50829750879550505050505092915050565b60006020820190508181036000830152611f218184611e92565b905092915050565b600081519050919050565b600082825260208201905092915050565b6000819050602082019050919050565b611f5e81611b43565b82525050565b6000611f708383611f55565b60208301905092915050565b6000602082019050919050565b6000611f9482611f29565b611f9e8185611f34565b9350611fa983611f45565b8060005b83811015611fda578151611fc18882611f64565b9750611fcc83611f7c565b925050600181019050611fad565b5085935050505092915050565b600081519050919050565b600082825260208201905092915050565b6000819050602082019050919050565b61201c81611d1d565b82525050565b600082825260208201905092915050565b600061203e82611f29565b6120488185612022565b935061205383611f45565b8060005b8381101561208457815161206b8882611f64565b975061207683611f7c565b925050600181019050612057565b5085935050505092915050565b600060c08301600083015184820360008601526120ae8282611dfb565b91505060208301516120c36020860182611ddb565b5060408301516120d66040860182611f55565b5060608301516120e96060860182611ddb565b5060808301516120fc6080860182612013565b5060a083015184820360a08601526121148282612033565b9150508091505092915050565b600061212d8383612091565b905092915050565b6000602082019050919050565b600061214d82611fe7565b6121578185611ff2565b93508360208202850161216985612003565b8060005b858110156121a557848403895281516121868582612121565b945061219183612135565b925060208a0199505060018101905061216d565b50829750879550505050505092915050565b600060c0820190506121cc6000830189611d0e565b6121d96020830188611946565b6121e66040830187611946565b6121f36060830186611946565b81810360808301526122058185611f89565b905081810360a08301526122198184612142565b9050979650505050505050565b7f476f616c206861736e2774206265656e20726561636865640000000000000000600082015250565b600061225c601883611c91565b915061226782612226565b602082019050919050565b6000602082019050818103600083015261228b8161224f565b9050919050565b7f5472616e73616374696f6e20616d6f756e742063616e6e6f74206265207a657260008201527f6f00000000000000000000000000000000000000000000000000000000000000602082015250565b60006122ee602183611c91565b91506122f982612292565b604082019050919050565b6000602082019050818103600083015261231d816122e1565b9050919050565b7f4e487b7100000000000000000000000000000000000000000000000000000000600052603260045260246000fd5b7f4e487b7100000000000000000000000000000000000000000000000000000000600052601160045260246000fd5b600061238d8261193c565b91507fffffffffffffffffffffffffffffffffffffffffffffffffffffffffffffffff8214156123c0576123bf612353565b5b600182019050919050565b7f5061796d656e7420666f7220746865207265717565737420697320616c72656160008201527f647920646f6e6500000000000000000000000000000000000000000000000000602082015250565b6000612427602783611c91565b9150612432826123cb565b604082019050919050565b600060208201905081810360008301526124568161241a565b9050919050565b60006124688261193c565b91506124738361193c565b9250817fffffffffffffffffffffffffffffffffffffffffffffffffffffffffffffffff04831182151516156124ac576124ab612353565b5b828202905092915050565b7f4e6f7420656e6f75676820766f74657320696e206661766f7572206f6620746860008201527f6520726571756573740000000000000000000000000000000000000000000000602082015250565b6000612513602983611c91565b915061251e826124b7565b604082019050919050565b6000602082019050818103600083015261254281612506565b9050919050565b7f52657175657374656420616d6f756e742069732067726561746572207468616e60008201527f2066756e642062616c616e636500000000000000000000000000000000000000602082015250565b60006125a5602d83611c91565b91506125b082612549565b604082019050919050565b600060208201905081810360008301526125d481612598565b9050919050565b7f43616e6e6f74206d616b65203520636f6e7365637574697665207370656e646960008201527f6e67207265717565737420776974686f75742073686172696e672070726f666960208201527f7473000000000000000000000000000000000000000000000000000000000000604082015250565b600061265d604283611c91565b9150612668826125db565b606082019050919050565b6000602082019050818103600083015261268c81612650565b9050919050565b600061269e8261193c565b91506126a98361193c565b9250828210156126bc576126bb612353565b5b828203905092915050565b7f506c65617365207368617265206120636f6d70616e79207265706f727420626560008201527f666f7265206d616b696e67206120726571756573740000000000000000000000602082015250565b6000612723603583611c91565b915061272e826126c7565b604082019050919050565b6000602082019050818103600083015261275281612716565b9050919050565b7f4d696e696d756d20566f74652050657263656e742063616e6e6f74206265206c60008201527f657373207468616e203530250000000000000000000000000000000000000000602082015250565b60006127b5602c83611c91565b91506127c082612759565b604082019050919050565b600060208201905081810360008301526127e4816127a8565b9050919050565b60006127f682611b81565b915060ff82141561280a57612809612353565b5b600182019050919050565b7f596f7520686176656e277420636f6e747269627574656420746f20746869732060008201527f66756e6400000000000000000000000000000000000000000000000000000000602082015250565b6000612871602483611c91565b915061287c82612815565b604082019050919050565b600060208201905081810360008301526128a081612864565b9050919050565b7f436f6e7472696275746f722068617320616c726561647920766f746564000000600082015250565b60006128dd601d83611c91565b91506128e8826128a7565b602082019050919050565b6000602082019050818103600083015261290c816128d0565b9050919050565b600061291e8261193c565b91506129298361193c565b9250827fffffffffffffffffffffffffffffffffffffffffffffffffffffffffffffffff0382111561295e5761295d612353565b5b828201905092915050565b7f4e487b7100000000000000000000000000000000000000000000000000000000600052602260045260246000fd5b600060028204905060018216806129b057607f821691505b602082108114156129c4576129c3612969565b5b50919050565b600063ffffffff82169050919050565b60006129e5826129ca565b91506129f0836129ca565b925082821015612a0357612a02612353565b5b828203905092915050565b6000612a19826129ca565b915063ffffffff821415612a3057612a2f612353565b5b600182019050919050565b7f50726f6a65637420646561646c696e65206861736e2774206265656e2072656160008201527f6368656400000000000000000000000000000000000000000000000000000000602082015250565b6000612a97602483611c91565b9150612aa282612a3b565b604082019050919050565b60006020820190508181036000830152612ac681612a8a565b9050919050565b7f46756e6420476f616c20616d6f756e7420686173206265656e2072656163686560008201527f6400000000000000000000000000000000000000000000000000000000000000602082015250565b6000612b29602183611c91565b9150612b3482612acd565b604082019050919050565b60006020820190508181036000830152612b5881612b1c565b9050919050565b7f416d6f756e74206973206c657373207468616e206d696e696d756d20636f6e7460008201527f7269627574696f6e20616d6f756e740000000000000000000000000000000000602082015250565b6000612bbb602f83611c91565b9150612bc682612b5f565b604082019050919050565b60006020820190508181036000830152612bea81612bae565b9050919050565b7f50726f6a65637420646561646c696e6520686173207061737365640000000000600082015250565b6000612c27601b83611c91565b9150612c3282612bf1565b602082019050919050565b60006020820190508181036000830152612c5681612c1a565b9050919050565b7f4e487b7100000000000000000000000000000000000000000000000000000000600052601260045260246000fd5b6000612c978261193c565b9150612ca28361193c565b925082612cb257612cb1612c5d565b5b828204905092915050565b6000612cc88261193c565b9150612cd38361193c565b925082612ce357612ce2612c5d565b5b82820690509291505056fea2646970667358221220ded13ce4d6fc60537a8cd286fdaad1d35c37ecec7ce8d8fbb34d882a440b2dff64736f6c634300080a0033",
  "linkReferences": {},
  "deployedLinkReferences": {}
}