{
  "_format": "hh-sol-artifact-1",
  "contractName": "FundRaising",
  "sourceName": "contracts/FundRaising.sol",
  "abi": [
    {
      "inputs": [
        {
          "internalType": "uint256",
          "name": "_deadline",
          "type": "uint256"
        },
        {
          "internalType": "uint256",
          "name": "_goal",
          "type": "uint256"
        },
        {
          "internalType": "uint256",
          "name": "_minimumContribution",
          "type": "uint256"
        }
      ],
      "stateMutability": "nonpayable",
      "type": "constructor"
    },
    {
      "inputs": [],
      "name": "contribute",
      "outputs": [],
      "stateMutability": "payable",
      "type": "function"
    },
    {
      "inputs": [
        {
          "internalType": "string",
          "name": "description",
          "type": "string"
        },
        {
          "internalType": "address",
          "name": "recipient",
          "type": "address"
        },
        {
          "internalType": "uint256",
          "name": "value",
          "type": "uint256"
        },
        {
          "internalType": "uint8",
          "name": "minimumVotePercent",
          "type": "uint8"
        }
      ],
      "name": "createSpendingRequest",
      "outputs": [],
      "stateMutability": "nonpayable",
      "type": "function"
    },
    {
      "inputs": [],
      "name": "getBalance",
      "outputs": [
        {
          "internalType": "uint256",
          "name": "",
          "type": "uint256"
        }
      ],
      "stateMutability": "view",
      "type": "function"
    },
    {
      "inputs": [],
      "name": "getDetails",
      "outputs": [
        {
          "internalType": "address",
          "name": "",
          "type": "address"
        },
        {
          "internalType": "uint256",
          "name": "",
          "type": "uint256"
        },
        {
          "internalType": "uint256",
          "name": "",
          "type": "uint256"
        },
        {
          "internalType": "uint256",
          "name": "",
          "type": "uint256"
        },
        {
          "internalType": "address[]",
          "name": "",
          "type": "address[]"
        },
        {
          "components": [
            {
              "internalType": "string",
              "name": "description",
              "type": "string"
            },
            {
              "internalType": "uint256",
              "name": "value",
              "type": "uint256"
            },
            {
              "internalType": "address",
              "name": "recipient",
              "type": "address"
            },
            {
              "internalType": "uint256",
              "name": "voteAmount",
              "type": "uint256"
            },
            {
              "internalType": "bool",
              "name": "completed",
              "type": "bool"
            },
            {
              "internalType": "uint8",
              "name": "minimumVotePercent",
              "type": "uint8"
            },
            {
              "internalType": "address[]",
              "name": "voters",
              "type": "address[]"
            }
          ],
          "internalType": "struct FundRaising.RequestDetails[]",
          "name": "",
          "type": "tuple[]"
        },
        {
          "components": [
            {
              "internalType": "uint256",
              "name": "timestamp",
              "type": "uint256"
            },
            {
              "internalType": "string",
              "name": "link",
              "type": "string"
            }
          ],
          "internalType": "struct FundRaising.Report[]",
          "name": "",
          "type": "tuple[]"
        }
      ],
      "stateMutability": "view",
      "type": "function"
    },
    {
      "inputs": [],
      "name": "getRefund",
      "outputs": [],
      "stateMutability": "nonpayable",
      "type": "function"
    },
    {
      "inputs": [],
      "name": "getReports",
      "outputs": [
        {
          "components": [
            {
              "internalType": "uint256",
              "name": "timestamp",
              "type": "uint256"
            },
            {
              "internalType": "string",
              "name": "link",
              "type": "string"
            }
          ],
          "internalType": "struct FundRaising.Report[]",
          "name": "",
          "type": "tuple[]"
        }
      ],
      "stateMutability": "view",
      "type": "function"
    },
    {
      "inputs": [
        {
          "internalType": "uint256",
          "name": "index",
          "type": "uint256"
        }
      ],
      "name": "makePayment",
      "outputs": [],
      "stateMutability": "nonpayable",
      "type": "function"
    },
    {
      "inputs": [
        {
          "internalType": "uint256",
          "name": "",
          "type": "uint256"
        }
      ],
      "name": "requests",
      "outputs": [
        {
          "internalType": "string",
          "name": "description",
          "type": "string"
        },
        {
          "internalType": "uint256",
          "name": "value",
          "type": "uint256"
        },
        {
          "internalType": "address",
          "name": "recipient",
          "type": "address"
        },
        {
          "internalType": "uint256",
          "name": "voteAmount",
          "type": "uint256"
        },
        {
          "internalType": "bool",
          "name": "completed",
          "type": "bool"
        },
        {
          "internalType": "uint8",
          "name": "minimumVotePercent",
          "type": "uint8"
        }
      ],
      "stateMutability": "view",
      "type": "function"
    },
    {
      "inputs": [],
      "name": "shareProfit",
      "outputs": [],
      "stateMutability": "payable",
      "type": "function"
    },
    {
      "inputs": [
        {
          "internalType": "string",
          "name": "link",
          "type": "string"
        }
      ],
      "name": "shareReport",
      "outputs": [],
      "stateMutability": "nonpayable",
      "type": "function"
    },
    {
      "inputs": [
        {
          "internalType": "uint256",
          "name": "index",
          "type": "uint256"
        }
      ],
      "name": "voteForRequest",
      "outputs": [],
      "stateMutability": "nonpayable",
      "type": "function"
    }
  ],
  "bytecode": "0x60806040526000600660006101000a81548160ff021916908360ff16021790555060006008553480156200003257600080fd5b50604051620032d5380380620032d5833981810160405281019062000058919062000232565b8060038190555082426200006d9190620002bd565b6004819055508160058190555033600960006101000a81548173ffffffffffffffffffffffffffffffffffffffff021916908373ffffffffffffffffffffffffffffffffffffffff1602179055506000600760018160018154018082558091505003906000526020600020906002020190506040518060400160405280600d81526020017f496e7469616c207265706f7274000000000000000000000000000000000000008152508160010190805190602001906200012e92919062000142565b50428160000181905550505050506200037f565b828054620001509062000349565b90600052602060002090601f016020900481019282620001745760008555620001c0565b82601f106200018f57805160ff1916838001178555620001c0565b82800160010185558215620001c0579182015b82811115620001bf578251825591602001919060010190620001a2565b5b509050620001cf9190620001d3565b5090565b5b80821115620001ee576000816000905550600101620001d4565b5090565b600080fd5b6000819050919050565b6200020c81620001f7565b81146200021857600080fd5b50565b6000815190506200022c8162000201565b92915050565b6000806000606084860312156200024e576200024d620001f2565b5b60006200025e868287016200021b565b935050602062000271868287016200021b565b925050604062000284868287016200021b565b9150509250925092565b7f4e487b7100000000000000000000000000000000000000000000000000000000600052601160045260246000fd5b6000620002ca82620001f7565b9150620002d783620001f7565b9250827fffffffffffffffffffffffffffffffffffffffffffffffffffffffffffffffff038211156200030f576200030e6200028e565b5b828201905092915050565b7f4e487b7100000000000000000000000000000000000000000000000000000000600052602260045260246000fd5b600060028204905060018216806200036257607f821691505b602082108114156200037957620003786200031a565b5b50919050565b612f46806200038f6000396000f3fe60806040526004361061009c5760003560e01c8063700127ef11610064578063700127ef1461015157806381d12c581461017a578063a3c86daf146101bc578063b2d5ae44146101e7578063d7bb99ba146101fe578063fbbf93a0146102085761009c565b806312065fe0146100a15780633bf8daca146100cc5780635114cb52146100d65780636ce82b55146100ff5780636f4f84f414610128575b600080fd5b3480156100ad57600080fd5b506100b6610239565b6040516100c39190611b40565b60405180910390f35b6100d4610241565b005b3480156100e257600080fd5b506100fd60048036038101906100f89190611b9b565b610475565b005b34801561010b57600080fd5b5061012660048036038101906101219190611da5565b610651565b005b34801561013457600080fd5b5061014f600480360381019061014a9190611e28565b61091e565b005b34801561015d57600080fd5b5061017860048036038101906101739190611b9b565b6109c2565b005b34801561018657600080fd5b506101a1600480360381019061019c9190611b9b565b610c1c565b6040516101b396959493929190611f32565b60405180910390f35b3480156101c857600080fd5b506101d1610d2a565b6040516101de91906120f2565b60405180910390f35b3480156101f357600080fd5b506101fc610ec9565b005b61020661117e565b005b34801561021457600080fd5b5061021d611363565b60405161023097969594939291906123c4565b60405180910390f35b600047905090565b600960009054906101000a900473ffffffffffffffffffffffffffffffffffffffff1673ffffffffffffffffffffffffffffffffffffffff163373ffffffffffffffffffffffffffffffffffffffff161461029b57600080fd5b60085460055411156102e2576040517f08c379a00000000000000000000000000000000000000000000000000000000081526004016102d990612494565b60405180910390fd5b60003411610325576040517f08c379a000000000000000000000000000000000000000000000000000000000815260040161031c90612526565b60405180910390fd5b60005b600280549050811015610456576002818154811061034957610348612546565b5b9060005260206000200160009054906101000a900473ffffffffffffffffffffffffffffffffffffffff1673ffffffffffffffffffffffffffffffffffffffff166108fc6104173460016000600287815481106103a9576103a8612546565b5b9060005260206000200160009054906101000a900473ffffffffffffffffffffffffffffffffffffffff1673ffffffffffffffffffffffffffffffffffffffff1673ffffffffffffffffffffffffffffffffffffffff16815260200190815260200160002054600854611960565b9081150290604051600060405180830381858888f19350505050158015610442573d6000803e3d6000fd5b50808061044e906125a4565b915050610328565b506000600660006101000a81548160ff021916908360ff160217905550565b600960009054906101000a900473ffffffffffffffffffffffffffffffffffffffff1673ffffffffffffffffffffffffffffffffffffffff163373ffffffffffffffffffffffffffffffffffffffff16146104cf57600080fd5b6000600a82815481106104e5576104e4612546565b5b90600052602060002090600702019050600015158160040160009054906101000a900460ff1615151461054d576040517f08c379a00000000000000000000000000000000000000000000000000000000081526004016105449061265f565b60405180910390fd5b8060040160019054906101000a900460ff1660ff1660085461056f919061267f565b60648260030154610580919061267f565b10156105c1576040517f08c379a00000000000000000000000000000000000000000000000000000000081526004016105b89061274b565b60405180910390fd5b8060020160009054906101000a900473ffffffffffffffffffffffffffffffffffffffff1673ffffffffffffffffffffffffffffffffffffffff166108fc82600101549081150290604051600060405180830381858888f1935050505015801561062f573d6000803e3d6000fd5b5060018160040160006101000a81548160ff0219169083151502179055505050565b600960009054906101000a900473ffffffffffffffffffffffffffffffffffffffff1673ffffffffffffffffffffffffffffffffffffffff163373ffffffffffffffffffffffffffffffffffffffff16146106ab57600080fd5b478211156106ee576040517f08c379a00000000000000000000000000000000000000000000000000000000081526004016106e5906127dd565b60405180910390fd5b6005600660009054906101000a900460ff1660ff161115610744576040517f08c379a000000000000000000000000000000000000000000000000000000000815260040161073b90612895565b60405180910390fd5b62278d004261075391906128b5565b6007600160078054905061076791906128b5565b8154811061077857610777612546565b5b90600052602060002090600202016000015410156107cb576040517f08c379a00000000000000000000000000000000000000000000000000000000081526004016107c29061295b565b60405180910390fd5b60328160ff161015610812576040517f08c379a0000000000000000000000000000000000000000000000000000000008152600401610809906129ed565b60405180910390fd5b6000600a600181600181540180825580915050039060005260206000209060070201905082816001018190555084816000019080519060200190610857929190611a12565b50838160020160006101000a81548173ffffffffffffffffffffffffffffffffffffffff021916908373ffffffffffffffffffffffffffffffffffffffff160217905550818160040160016101000a81548160ff021916908360ff1602179055506000816003018190555060008160040160006101000a81548160ff0219169083151502179055506006600081819054906101000a900460ff16809291906108fe90612a0d565b91906101000a81548160ff021916908360ff160217905550505050505050565b600960009054906101000a900473ffffffffffffffffffffffffffffffffffffffff1673ffffffffffffffffffffffffffffffffffffffff163373ffffffffffffffffffffffffffffffffffffffff161461097857600080fd5b600060076001816001815401808255809150500390600052602060002090600202019050818160010190805190602001906109b4929190611a12565b504281600001819055505050565b6000600160003373ffffffffffffffffffffffffffffffffffffffff1673ffffffffffffffffffffffffffffffffffffffff1681526020019081526020016000205411610a44576040517f08c379a0000000000000000000000000000000000000000000000000000000008152600401610a3b90612aa9565b60405180910390fd5b6000600a8281548110610a5a57610a59612546565b5b90600052602060002090600702019050600015158160060160003373ffffffffffffffffffffffffffffffffffffffff1673ffffffffffffffffffffffffffffffffffffffff16815260200190815260200160002060009054906101000a900460ff16151514610aff576040517f08c379a0000000000000000000000000000000000000000000000000000000008152600401610af690612b15565b60405180910390fd5b60018160060160003373ffffffffffffffffffffffffffffffffffffffff1673ffffffffffffffffffffffffffffffffffffffff16815260200190815260200160002060006101000a81548160ff02191690831515021790555080600501339080600181540180825580915050600190039060005260206000200160009091909190916101000a81548173ffffffffffffffffffffffffffffffffffffffff021916908373ffffffffffffffffffffffffffffffffffffffff160217905550600160003373ffffffffffffffffffffffffffffffffffffffff1673ffffffffffffffffffffffffffffffffffffffff16815260200190815260200160002054816003016000828254610c119190612b35565b925050819055505050565b600a8181548110610c2c57600080fd5b9060005260206000209060070201600091509050806000018054610c4f90612bba565b80601f0160208091040260200160405190810160405280929190818152602001828054610c7b90612bba565b8015610cc85780601f10610c9d57610100808354040283529160200191610cc8565b820191906000526020600020905b815481529060010190602001808311610cab57829003601f168201915b5050505050908060010154908060020160009054906101000a900473ffffffffffffffffffffffffffffffffffffffff16908060030154908060040160009054906101000a900460ff16908060040160019054906101000a900460ff16905086565b606060006001600780549050610d4091906128b5565b67ffffffffffffffff811115610d5957610d58611be3565b5b604051908082528060200260200182016040528015610d9257816020015b610d7f611a98565b815260200190600190039081610d775790505b5090506000600190505b6007805490508163ffffffff161015610ec15760078163ffffffff1681548110610dc957610dc8612546565b5b906000526020600020906002020160405180604001604052908160008201548152602001600182018054610dfc90612bba565b80601f0160208091040260200160405190810160405280929190818152602001828054610e2890612bba565b8015610e755780601f10610e4a57610100808354040283529160200191610e75565b820191906000526020600020905b815481529060010190602001808311610e5857829003601f168201915b50505050508152505082600183610e8c9190612bfc565b63ffffffff1681518110610ea357610ea2612546565b5b60200260200101819052508080610eb990612c30565b915050610d9c565b508091505090565b6004544211610f0d576040517f08c379a0000000000000000000000000000000000000000000000000000000008152600401610f0490612ccf565b60405180910390fd5b60055460085410610f53576040517f08c379a0000000000000000000000000000000000000000000000000000000008152600401610f4a90612d61565b60405180910390fd5b6000600160003373ffffffffffffffffffffffffffffffffffffffff1673ffffffffffffffffffffffffffffffffffffffff1681526020019081526020016000205411610fd5576040517f08c379a0000000000000000000000000000000000000000000000000000000008152600401610fcc90612aa9565b60405180910390fd5b3373ffffffffffffffffffffffffffffffffffffffff166108fc600160003373ffffffffffffffffffffffffffffffffffffffff1673ffffffffffffffffffffffffffffffffffffffff168152602001908152602001600020549081150290604051600060405180830381858888f1935050505015801561105a573d6000803e3d6000fd5b5060005b6002805490508110156110f5573373ffffffffffffffffffffffffffffffffffffffff166002828154811061109657611095612546565b5b9060005260206000200160009054906101000a900473ffffffffffffffffffffffffffffffffffffffff1673ffffffffffffffffffffffffffffffffffffffff1614156110e2576110f5565b80806110ed906125a4565b91505061105e565b6002818154811061110957611108612546565b5b9060005260206000200160006101000a81549073ffffffffffffffffffffffffffffffffffffffff02191690556000600160003373ffffffffffffffffffffffffffffffffffffffff1673ffffffffffffffffffffffffffffffffffffffff1681526020019081526020016000208190555050565b60035434116111c2576040517f08c379a00000000000000000000000000000000000000000000000000000000081526004016111b990612df3565b60405180910390fd5b6004544210611206576040517f08c379a00000000000000000000000000000000000000000000000000000000081526004016111fd90612e5f565b60405180910390fd5b6000600160003373ffffffffffffffffffffffffffffffffffffffff1673ffffffffffffffffffffffffffffffffffffffff1681526020019081526020016000205414156112f2576002339080600181540180825580915050600190039060005260206000200160009091909190916101000a81548173ffffffffffffffffffffffffffffffffffffffff021916908373ffffffffffffffffffffffffffffffffffffffff16021790555060008081819054906101000a900463ffffffff16809291906112d290612c30565b91906101000a81548163ffffffff021916908363ffffffff160217905550505b34600160003373ffffffffffffffffffffffffffffffffffffffff1673ffffffffffffffffffffffffffffffffffffffff16815260200190815260200160002060008282546113419190612b35565b92505081905550346008600082825461135a9190612b35565b92505081905550565b60008060008060608060606000600a8054905067ffffffffffffffff81111561138f5761138e611be3565b5b6040519080825280602002602001820160405280156113c857816020015b6113b5611ab2565b8152602001906001900390816113ad5790505b50905060005b600a805490508163ffffffff1610156116e3576000600a8263ffffffff16815481106113fd576113fc612546565b5b9060005260206000209060070201905080600001805461141c90612bba565b80601f016020809104026020016040519081016040528092919081815260200182805461144890612bba565b80156114955780601f1061146a57610100808354040283529160200191611495565b820191906000526020600020905b81548152906001019060200180831161147857829003601f168201915b5050505050838363ffffffff16815181106114b3576114b2612546565b5b6020026020010151600001819052508060010154838363ffffffff16815181106114e0576114df612546565b5b602002602001015160200181815250508060030154838363ffffffff168151811061150e5761150d612546565b5b602002602001015160600181815250508060020160009054906101000a900473ffffffffffffffffffffffffffffffffffffffff16838363ffffffff168151811061155c5761155b612546565b5b60200260200101516040019073ffffffffffffffffffffffffffffffffffffffff16908173ffffffffffffffffffffffffffffffffffffffff16815250508060040160009054906101000a900460ff16838363ffffffff16815181106115c5576115c4612546565b5b602002602001015160800190151590811515815250508060040160019054906101000a900460ff16838363ffffffff168151811061160657611605612546565b5b602002602001015160a0019060ff16908160ff1681525050806005018054806020026020016040519081016040528092919081815260200182805480156116a257602002820191906000526020600020905b8160009054906101000a900473ffffffffffffffffffffffffffffffffffffffff1673ffffffffffffffffffffffffffffffffffffffff1681526020019060010190808311611658575b5050505050838363ffffffff16815181106116c0576116bf612546565b5b602002602001015160c001819052505080806116db90612c30565b9150506113ce565b50600060016007805490506116f891906128b5565b67ffffffffffffffff81111561171157611710611be3565b5b60405190808252806020026020018201604052801561174a57816020015b611737611a98565b81526020019060019003908161172f5790505b5090506000600190505b6007805490508163ffffffff1610156118795760078163ffffffff168154811061178157611780612546565b5b9060005260206000209060020201604051806040016040529081600082015481526020016001820180546117b490612bba565b80601f01602080910402602001604051908101604052809291908181526020018280546117e090612bba565b801561182d5780601f106118025761010080835404028352916020019161182d565b820191906000526020600020905b81548152906001019060200180831161181057829003601f168201915b505050505081525050826001836118449190612bfc565b63ffffffff168151811061185b5761185a612546565b5b6020026020010181905250808061187190612c30565b915050611754565b50600960009054906101000a900473ffffffffffffffffffffffffffffffffffffffff1660085460008054906101000a900463ffffffff1647600286868463ffffffff1694508280548060200260200160405190810160405280929190818152602001828054801561194057602002820191906000526020600020905b8160009054906101000a900473ffffffffffffffffffffffffffffffffffffffff1673ffffffffffffffffffffffffffffffffffffffff16815260200190600101908083116118f6575b505050505092509850985098509850985098509850505090919293949596565b600080828561196f9190612eae565b90506000838661197f9190612edf565b90506000848661198f9190612eae565b90506000858761199f9190612edf565b90508581846119ae919061267f565b6119b89190612eae565b82846119c4919061267f565b82866119d0919061267f565b8885886119dd919061267f565b6119e7919061267f565b6119f19190612b35565b6119fb9190612b35565b611a059190612b35565b9450505050509392505050565b828054611a1e90612bba565b90600052602060002090601f016020900481019282611a405760008555611a87565b82601f10611a5957805160ff1916838001178555611a87565b82800160010185558215611a87579182015b82811115611a86578251825591602001919060010190611a6b565b5b509050611a949190611b0a565b5090565b604051806040016040528060008152602001606081525090565b6040518060e001604052806060815260200160008152602001600073ffffffffffffffffffffffffffffffffffffffff16815260200160008152602001600015158152602001600060ff168152602001606081525090565b5b80821115611b23576000816000905550600101611b0b565b5090565b6000819050919050565b611b3a81611b27565b82525050565b6000602082019050611b556000830184611b31565b92915050565b6000604051905090565b600080fd5b600080fd5b611b7881611b27565b8114611b8357600080fd5b50565b600081359050611b9581611b6f565b92915050565b600060208284031215611bb157611bb0611b65565b5b6000611bbf84828501611b86565b91505092915050565b600080fd5b600080fd5b6000601f19601f8301169050919050565b7f4e487b7100000000000000000000000000000000000000000000000000000000600052604160045260246000fd5b611c1b82611bd2565b810181811067ffffffffffffffff82111715611c3a57611c39611be3565b5b80604052505050565b6000611c4d611b5b565b9050611c598282611c12565b919050565b600067ffffffffffffffff821115611c7957611c78611be3565b5b611c8282611bd2565b9050602081019050919050565b82818337600083830152505050565b6000611cb1611cac84611c5e565b611c43565b905082815260208101848484011115611ccd57611ccc611bcd565b5b611cd8848285611c8f565b509392505050565b600082601f830112611cf557611cf4611bc8565b5b8135611d05848260208601611c9e565b91505092915050565b600073ffffffffffffffffffffffffffffffffffffffff82169050919050565b6000611d3982611d0e565b9050919050565b611d4981611d2e565b8114611d5457600080fd5b50565b600081359050611d6681611d40565b92915050565b600060ff82169050919050565b611d8281611d6c565b8114611d8d57600080fd5b50565b600081359050611d9f81611d79565b92915050565b60008060008060808587031215611dbf57611dbe611b65565b5b600085013567ffffffffffffffff811115611ddd57611ddc611b6a565b5b611de987828801611ce0565b9450506020611dfa87828801611d57565b9350506040611e0b87828801611b86565b9250506060611e1c87828801611d90565b91505092959194509250565b600060208284031215611e3e57611e3d611b65565b5b600082013567ffffffffffffffff811115611e5c57611e5b611b6a565b5b611e6884828501611ce0565b91505092915050565b600081519050919050565b600082825260208201905092915050565b60005b83811015611eab578082015181840152602081019050611e90565b83811115611eba576000848401525b50505050565b6000611ecb82611e71565b611ed58185611e7c565b9350611ee5818560208601611e8d565b611eee81611bd2565b840191505092915050565b611f0281611d2e565b82525050565b60008115159050919050565b611f1d81611f08565b82525050565b611f2c81611d6c565b82525050565b600060c0820190508181036000830152611f4c8189611ec0565b9050611f5b6020830188611b31565b611f686040830187611ef9565b611f756060830186611b31565b611f826080830185611f14565b611f8f60a0830184611f23565b979650505050505050565b600081519050919050565b600082825260208201905092915050565b6000819050602082019050919050565b611fcf81611b27565b82525050565b600082825260208201905092915050565b6000611ff182611e71565b611ffb8185611fd5565b935061200b818560208601611e8d565b61201481611bd2565b840191505092915050565b60006040830160008301516120376000860182611fc6565b506020830151848203602086015261204f8282611fe6565b9150508091505092915050565b6000612068838361201f565b905092915050565b6000602082019050919050565b600061208882611f9a565b6120928185611fa5565b9350836020820285016120a485611fb6565b8060005b858110156120e057848403895281516120c1858261205c565b94506120cc83612070565b925060208a019950506001810190506120a8565b50829750879550505050505092915050565b6000602082019050818103600083015261210c818461207d565b905092915050565b600081519050919050565b600082825260208201905092915050565b6000819050602082019050919050565b61214981611d2e565b82525050565b600061215b8383612140565b60208301905092915050565b6000602082019050919050565b600061217f82612114565b612189818561211f565b935061219483612130565b8060005b838110156121c55781516121ac888261214f565b97506121b783612167565b925050600181019050612198565b5085935050505092915050565b600081519050919050565b600082825260208201905092915050565b6000819050602082019050919050565b61220781611f08565b82525050565b61221681611d6c565b82525050565b600082825260208201905092915050565b600061223882612114565b612242818561221c565b935061224d83612130565b8060005b8381101561227e578151612265888261214f565b975061227083612167565b925050600181019050612251565b5085935050505092915050565b600060e08301600083015184820360008601526122a88282611fe6565b91505060208301516122bd6020860182611fc6565b5060408301516122d06040860182612140565b5060608301516122e36060860182611fc6565b5060808301516122f660808601826121fe565b5060a083015161230960a086018261220d565b5060c083015184820360c0860152612321828261222d565b9150508091505092915050565b600061233a838361228b565b905092915050565b6000602082019050919050565b600061235a826121d2565b61236481856121dd565b935083602082028501612376856121ee565b8060005b858110156123b25784840389528151612393858261232e565b945061239e83612342565b925060208a0199505060018101905061237a565b50829750879550505050505092915050565b600060e0820190506123d9600083018a611ef9565b6123e66020830189611b31565b6123f36040830188611b31565b6124006060830187611b31565b81810360808301526124128186612174565b905081810360a0830152612426818561234f565b905081810360c083015261243a818461207d565b905098975050505050505050565b7f476f616c206861736e2774206265656e20726561636865640000000000000000600082015250565b600061247e601883611e7c565b915061248982612448565b602082019050919050565b600060208201905081810360008301526124ad81612471565b9050919050565b7f5472616e73616374696f6e20616d6f756e742063616e6e6f74206265207a657260008201527f6f00000000000000000000000000000000000000000000000000000000000000602082015250565b6000612510602183611e7c565b915061251b826124b4565b604082019050919050565b6000602082019050818103600083015261253f81612503565b9050919050565b7f4e487b7100000000000000000000000000000000000000000000000000000000600052603260045260246000fd5b7f4e487b7100000000000000000000000000000000000000000000000000000000600052601160045260246000fd5b60006125af82611b27565b91507fffffffffffffffffffffffffffffffffffffffffffffffffffffffffffffffff8214156125e2576125e1612575565b5b600182019050919050565b7f5061796d656e7420666f7220746865207265717565737420697320616c72656160008201527f647920646f6e6500000000000000000000000000000000000000000000000000602082015250565b6000612649602783611e7c565b9150612654826125ed565b604082019050919050565b600060208201905081810360008301526126788161263c565b9050919050565b600061268a82611b27565b915061269583611b27565b9250817fffffffffffffffffffffffffffffffffffffffffffffffffffffffffffffffff04831182151516156126ce576126cd612575565b5b828202905092915050565b7f4e6f7420656e6f75676820766f74657320696e206661766f7572206f6620746860008201527f6520726571756573740000000000000000000000000000000000000000000000602082015250565b6000612735602983611e7c565b9150612740826126d9565b604082019050919050565b6000602082019050818103600083015261276481612728565b9050919050565b7f52657175657374656420616d6f756e742069732067726561746572207468616e60008201527f2066756e642062616c616e636500000000000000000000000000000000000000602082015250565b60006127c7602d83611e7c565b91506127d28261276b565b604082019050919050565b600060208201905081810360008301526127f6816127ba565b9050919050565b7f43616e6e6f74206d616b65203520636f6e7365637574697665207370656e646960008201527f6e67207265717565737420776974686f75742073686172696e672070726f666960208201527f7473000000000000000000000000000000000000000000000000000000000000604082015250565b600061287f604283611e7c565b915061288a826127fd565b606082019050919050565b600060208201905081810360008301526128ae81612872565b9050919050565b60006128c082611b27565b91506128cb83611b27565b9250828210156128de576128dd612575565b5b828203905092915050565b7f506c65617365207368617265206120636f6d70616e79207265706f727420626560008201527f666f7265206d616b696e67206120726571756573740000000000000000000000602082015250565b6000612945603583611e7c565b9150612950826128e9565b604082019050919050565b6000602082019050818103600083015261297481612938565b9050919050565b7f4d696e696d756d20566f74652050657263656e742063616e6e6f74206265206c60008201527f657373207468616e203530250000000000000000000000000000000000000000602082015250565b60006129d7602c83611e7c565b91506129e28261297b565b604082019050919050565b60006020820190508181036000830152612a06816129ca565b9050919050565b6000612a1882611d6c565b915060ff821415612a2c57612a2b612575565b5b600182019050919050565b7f596f7520686176656e277420636f6e747269627574656420746f20746869732060008201527f66756e6400000000000000000000000000000000000000000000000000000000602082015250565b6000612a93602483611e7c565b9150612a9e82612a37565b604082019050919050565b60006020820190508181036000830152612ac281612a86565b9050919050565b7f436f6e7472696275746f722068617320616c726561647920766f746564000000600082015250565b6000612aff601d83611e7c565b9150612b0a82612ac9565b602082019050919050565b60006020820190508181036000830152612b2e81612af2565b9050919050565b6000612b4082611b27565b9150612b4b83611b27565b9250827fffffffffffffffffffffffffffffffffffffffffffffffffffffffffffffffff03821115612b8057612b7f612575565b5b828201905092915050565b7f4e487b7100000000000000000000000000000000000000000000000000000000600052602260045260246000fd5b60006002820490506001821680612bd257607f821691505b60208210811415612be657612be5612b8b565b5b50919050565b600063ffffffff82169050919050565b6000612c0782612bec565b9150612c1283612bec565b925082821015612c2557612c24612575565b5b828203905092915050565b6000612c3b82612bec565b915063ffffffff821415612c5257612c51612575565b5b600182019050919050565b7f50726f6a65637420646561646c696e65206861736e2774206265656e2072656160008201527f6368656400000000000000000000000000000000000000000000000000000000602082015250565b6000612cb9602483611e7c565b9150612cc482612c5d565b604082019050919050565b60006020820190508181036000830152612ce881612cac565b9050919050565b7f46756e6420476f616c20616d6f756e7420686173206265656e2072656163686560008201527f6400000000000000000000000000000000000000000000000000000000000000602082015250565b6000612d4b602183611e7c565b9150612d5682612cef565b604082019050919050565b60006020820190508181036000830152612d7a81612d3e565b9050919050565b7f416d6f756e74206973206c657373207468616e206d696e696d756d20636f6e7460008201527f7269627574696f6e20616d6f756e740000000000000000000000000000000000602082015250565b6000612ddd602f83611e7c565b9150612de882612d81565b604082019050919050565b60006020820190508181036000830152612e0c81612dd0565b9050919050565b7f50726f6a65637420646561646c696e6520686173207061737365640000000000600082015250565b6000612e49601b83611e7c565b9150612e5482612e13565b602082019050919050565b60006020820190508181036000830152612e7881612e3c565b9050919050565b7f4e487b7100000000000000000000000000000000000000000000000000000000600052601260045260246000fd5b6000612eb982611b27565b9150612ec483611b27565b925082612ed457612ed3612e7f565b5b828204905092915050565b6000612eea82611b27565b9150612ef583611b27565b925082612f0557612f04612e7f565b5b82820690509291505056fea2646970667358221220c05351af5a0155e5969e9c955bdb13aaeac8a68f087dc313009559c4106f3d1b64736f6c634300080a0033",
  "linkReferences": {},
  "deployedLinkReferences": {}
}